{
  "_format": "hh-sol-artifact-1",
  "contractName": "FengGeToken",
  "sourceName": "contracts/FengGeToken.sol",
  "abi": [
    {
      "inputs": [
        {
          "internalType": "uint256",
          "name": "initialSupply",
          "type": "uint256"
        },
        {
          "internalType": "uint256",
          "name": "_cap",
          "type": "uint256"
        }
      ],
      "stateMutability": "nonpayable",
      "type": "constructor"
    },
    {
      "anonymous": false,
      "inputs": [
        {
          "indexed": true,
          "internalType": "address",
          "name": "owner",
          "type": "address"
        },
        {
          "indexed": true,
          "internalType": "address",
          "name": "spender",
          "type": "address"
        },
        {
          "indexed": false,
          "internalType": "uint256",
          "name": "value",
          "type": "uint256"
        }
      ],
      "name": "Approval",
      "type": "event"
    },
    {
      "anonymous": false,
      "inputs": [
        {
          "indexed": true,
          "internalType": "address",
          "name": "previousOwner",
          "type": "address"
        },
        {
          "indexed": true,
          "internalType": "address",
          "name": "newOwner",
          "type": "address"
        }
      ],
      "name": "OwnershipTransferred",
      "type": "event"
    },
    {
      "anonymous": false,
      "inputs": [
        {
          "indexed": true,
          "internalType": "address",
          "name": "from",
          "type": "address"
        },
        {
          "indexed": true,
          "internalType": "address",
          "name": "to",
          "type": "address"
        },
        {
          "indexed": false,
          "internalType": "uint256",
          "name": "value",
          "type": "uint256"
        }
      ],
      "name": "Transfer",
      "type": "event"
    },
    {
      "inputs": [
        {
          "internalType": "address",
          "name": "owner",
          "type": "address"
        },
        {
          "internalType": "address",
          "name": "spender",
          "type": "address"
        }
      ],
      "name": "allowance",
      "outputs": [
        {
          "internalType": "uint256",
          "name": "",
          "type": "uint256"
        }
      ],
      "stateMutability": "view",
      "type": "function"
    },
    {
      "inputs": [
        {
          "internalType": "address",
          "name": "spender",
          "type": "address"
        },
        {
          "internalType": "uint256",
          "name": "amount",
          "type": "uint256"
        }
      ],
      "name": "approve",
      "outputs": [
        {
          "internalType": "bool",
          "name": "",
          "type": "bool"
        }
      ],
      "stateMutability": "nonpayable",
      "type": "function"
    },
    {
      "inputs": [
        {
          "internalType": "address",
          "name": "account",
          "type": "address"
        }
      ],
      "name": "balanceOf",
      "outputs": [
        {
          "internalType": "uint256",
          "name": "",
          "type": "uint256"
        }
      ],
      "stateMutability": "view",
      "type": "function"
    },
    {
      "inputs": [],
      "name": "cap",
      "outputs": [
        {
          "internalType": "uint256",
          "name": "",
          "type": "uint256"
        }
      ],
      "stateMutability": "view",
      "type": "function"
    },
    {
      "inputs": [],
      "name": "decimals",
      "outputs": [
        {
          "internalType": "uint8",
          "name": "",
          "type": "uint8"
        }
      ],
      "stateMutability": "view",
      "type": "function"
    },
    {
      "inputs": [
        {
          "internalType": "address",
          "name": "spender",
          "type": "address"
        },
        {
          "internalType": "uint256",
          "name": "subtractedValue",
          "type": "uint256"
        }
      ],
      "name": "decreaseAllowance",
      "outputs": [
        {
          "internalType": "bool",
          "name": "",
          "type": "bool"
        }
      ],
      "stateMutability": "nonpayable",
      "type": "function"
    },
    {
      "inputs": [
        {
          "internalType": "address",
          "name": "spender",
          "type": "address"
        },
        {
          "internalType": "uint256",
          "name": "addedValue",
          "type": "uint256"
        }
      ],
      "name": "increaseAllowance",
      "outputs": [
        {
          "internalType": "bool",
          "name": "",
          "type": "bool"
        }
      ],
      "stateMutability": "nonpayable",
      "type": "function"
    },
    {
      "inputs": [
        {
          "internalType": "address",
          "name": "to",
          "type": "address"
        },
        {
          "internalType": "uint256",
          "name": "amount",
          "type": "uint256"
        }
      ],
      "name": "mint",
      "outputs": [],
      "stateMutability": "nonpayable",
      "type": "function"
    },
    {
      "inputs": [],
      "name": "name",
      "outputs": [
        {
          "internalType": "string",
          "name": "",
          "type": "string"
        }
      ],
      "stateMutability": "view",
      "type": "function"
    },
    {
      "inputs": [],
      "name": "owner",
      "outputs": [
        {
          "internalType": "address",
          "name": "",
          "type": "address"
        }
      ],
      "stateMutability": "view",
      "type": "function"
    },
    {
      "inputs": [],
      "name": "renounceOwnership",
      "outputs": [],
      "stateMutability": "nonpayable",
      "type": "function"
    },
    {
      "inputs": [],
      "name": "symbol",
      "outputs": [
        {
          "internalType": "string",
          "name": "",
          "type": "string"
        }
      ],
      "stateMutability": "view",
      "type": "function"
    },
    {
      "inputs": [],
      "name": "totalSupply",
      "outputs": [
        {
          "internalType": "uint256",
          "name": "",
          "type": "uint256"
        }
      ],
      "stateMutability": "view",
      "type": "function"
    },
    {
      "inputs": [
        {
          "internalType": "address",
          "name": "to",
          "type": "address"
        },
        {
          "internalType": "uint256",
          "name": "amount",
          "type": "uint256"
        }
      ],
      "name": "transfer",
      "outputs": [
        {
          "internalType": "bool",
          "name": "",
          "type": "bool"
        }
      ],
      "stateMutability": "nonpayable",
      "type": "function"
    },
    {
      "inputs": [
        {
          "internalType": "address",
          "name": "from",
          "type": "address"
        },
        {
          "internalType": "address",
          "name": "to",
          "type": "address"
        },
        {
          "internalType": "uint256",
          "name": "amount",
          "type": "uint256"
        }
      ],
      "name": "transferFrom",
      "outputs": [
        {
          "internalType": "bool",
          "name": "",
          "type": "bool"
        }
      ],
      "stateMutability": "nonpayable",
      "type": "function"
    },
    {
      "inputs": [
        {
          "internalType": "address",
          "name": "newOwner",
          "type": "address"
        }
      ],
      "name": "transferOwnership",
      "outputs": [],
      "stateMutability": "nonpayable",
      "type": "function"
    }
  ],
  "bytecode": "0x60a06040523480156200001157600080fd5b50604051620010163803806200101683398101604081905262000034916200029b565b6040518060400160405280600c81526020016b2332b733a3b2902a37b5b2b760a11b8152506040518060400160405280600681526020016546454e47474560d01b815250816003908162000089919062000364565b50600462000098828262000364565b505050620000b5620000af6200017d60201b60201c565b62000181565b600081116200010b5760405162461bcd60e51b815260206004820152601d60248201527f436170206d7573742062652067726561746572207468616e207a65726f00000060448201526064015b60405180910390fd5b808211156200015d5760405162461bcd60e51b815260206004820152601a60248201527f496e697469616c20737570706c79206578636565647320636170000000000000604482015260640162000102565b608081905281156200017557620001753383620001d3565b505062000458565b3390565b600580546001600160a01b038381166001600160a01b0319831681179093556040519116919082907f8be0079c531659141344cd1fd0a4f28419497f9722a3daafe3b4186f6b6457e090600090a35050565b6001600160a01b0382166200022b5760405162461bcd60e51b815260206004820152601f60248201527f45524332303a206d696e7420746f20746865207a65726f206164647265737300604482015260640162000102565b80600260008282546200023f919062000430565b90915550506001600160a01b038216600081815260208181526040808320805486019055518481527fddf252ad1be2c89b69c2b068fc378daa952ba7f163c4a11628f55a4df523b3ef910160405180910390a35050565b505050565b60008060408385031215620002af57600080fd5b505080516020909101519092909150565b634e487b7160e01b600052604160045260246000fd5b600181811c90821680620002eb57607f821691505b6020821081036200030c57634e487b7160e01b600052602260045260246000fd5b50919050565b601f8211156200029657600081815260208120601f850160051c810160208610156200033b5750805b601f850160051c820191505b818110156200035c5782815560010162000347565b505050505050565b81516001600160401b03811115620003805762000380620002c0565b6200039881620003918454620002d6565b8462000312565b602080601f831160018114620003d05760008415620003b75750858301515b600019600386901b1c1916600185901b1785556200035c565b600085815260208120601f198616915b828110156200040157888601518255948401946001909101908401620003e0565b5085821015620004205787850151600019600388901b60f8161c191681555b5050505050600190811b01905550565b808201808211156200045257634e487b7160e01b600052601160045260246000fd5b92915050565b608051610b9b6200047b6000396000818161017f01526103650152610b9b6000f3fe608060405234801561001057600080fd5b50600436106101005760003560e01c806370a0823111610097578063a457c2d711610066578063a457c2d71461021d578063a9059cbb14610230578063dd62ed3e14610243578063f2fde38b1461025657600080fd5b806370a08231146101c9578063715018a6146101f25780638da5cb5b146101fa57806395d89b411461021557600080fd5b8063313ce567116100d3578063313ce5671461016b578063355274ea1461017a57806339509351146101a157806340c10f19146101b457600080fd5b806306fdde0314610105578063095ea7b31461012357806318160ddd1461014657806323b872dd14610158575b600080fd5b61010d610269565b60405161011a91906109e5565b60405180910390f35b610136610131366004610a4f565b6102fb565b604051901515815260200161011a565b6002545b60405190815260200161011a565b610136610166366004610a79565b610315565b6040516012815260200161011a565b61014a7f000000000000000000000000000000000000000000000000000000000000000081565b6101366101af366004610a4f565b610339565b6101c76101c2366004610a4f565b61035b565b005b61014a6101d7366004610ab5565b6001600160a01b031660009081526020819052604090205490565b6101c76103e8565b6005546040516001600160a01b03909116815260200161011a565b61010d6103fc565b61013661022b366004610a4f565b61040b565b61013661023e366004610a4f565b610486565b61014a610251366004610ad7565b610494565b6101c7610264366004610ab5565b6104bf565b60606003805461027890610b0a565b80601f01602080910402602001604051908101604052809291908181526020018280546102a490610b0a565b80156102f15780601f106102c6576101008083540402835291602001916102f1565b820191906000526020600020905b8154815290600101906020018083116102d457829003601f168201915b5050505050905090565b600033610309818585610538565b60019150505b92915050565b60003361032385828561065c565b61032e8585856106d6565b506001949350505050565b60003361030981858561034c8383610494565b6103569190610b44565b610538565b61036361087a565b7f00000000000000000000000000000000000000000000000000000000000000008161038e60025490565b6103989190610b44565b11156103da5760405162461bcd60e51b815260206004820152600c60248201526b10d85c08195e18d95959195960a21b60448201526064015b60405180910390fd5b6103e482826108d4565b5050565b6103f061087a565b6103fa6000610993565b565b60606004805461027890610b0a565b600033816104198286610494565b9050838110156104795760405162461bcd60e51b815260206004820152602560248201527f45524332303a2064656372656173656420616c6c6f77616e63652062656c6f77604482015264207a65726f60d81b60648201526084016103d1565b61032e8286868403610538565b6000336103098185856106d6565b6001600160a01b03918216600090815260016020908152604080832093909416825291909152205490565b6104c761087a565b6001600160a01b03811661052c5760405162461bcd60e51b815260206004820152602660248201527f4f776e61626c653a206e6577206f776e657220697320746865207a65726f206160448201526564647265737360d01b60648201526084016103d1565b61053581610993565b50565b6001600160a01b03831661059a5760405162461bcd60e51b8152602060048201526024808201527f45524332303a20617070726f76652066726f6d20746865207a65726f206164646044820152637265737360e01b60648201526084016103d1565b6001600160a01b0382166105fb5760405162461bcd60e51b815260206004820152602260248201527f45524332303a20617070726f766520746f20746865207a65726f206164647265604482015261737360f01b60648201526084016103d1565b6001600160a01b0383811660008181526001602090815260408083209487168084529482529182902085905590518481527f8c5be1e5ebec7d5bd14f71427d1e84f3dd0314c0f7b2291e5b200ac8c7c3b925910160405180910390a3505050565b60006106688484610494565b905060001981146106d057818110156106c35760405162461bcd60e51b815260206004820152601d60248201527f45524332303a20696e73756666696369656e7420616c6c6f77616e636500000060448201526064016103d1565b6106d08484848403610538565b50505050565b6001600160a01b03831661073a5760405162461bcd60e51b815260206004820152602560248201527f45524332303a207472616e736665722066726f6d20746865207a65726f206164604482015264647265737360d81b60648201526084016103d1565b6001600160a01b03821661079c5760405162461bcd60e51b815260206004820152602360248201527f45524332303a207472616e7366657220746f20746865207a65726f206164647260448201526265737360e81b60648201526084016103d1565b6001600160a01b038316600090815260208190526040902054818110156108145760405162461bcd60e51b815260206004820152602660248201527f45524332303a207472616e7366657220616d6f756e7420657863656564732062604482015265616c616e636560d01b60648201526084016103d1565b6001600160a01b03848116600081815260208181526040808320878703905593871680835291849020805487019055925185815290927fddf252ad1be2c89b69c2b068fc378daa952ba7f163c4a11628f55a4df523b3ef910160405180910390a36106d0565b6005546001600160a01b031633146103fa5760405162461bcd60e51b815260206004820181905260248201527f4f776e61626c653a2063616c6c6572206973206e6f7420746865206f776e657260448201526064016103d1565b6001600160a01b03821661092a5760405162461bcd60e51b815260206004820152601f60248201527f45524332303a206d696e7420746f20746865207a65726f20616464726573730060448201526064016103d1565b806002600082825461093c9190610b44565b90915550506001600160a01b038216600081815260208181526040808320805486019055518481527fddf252ad1be2c89b69c2b068fc378daa952ba7f163c4a11628f55a4df523b3ef910160405180910390a35050565b600580546001600160a01b038381166001600160a01b0319831681179093556040519116919082907f8be0079c531659141344cd1fd0a4f28419497f9722a3daafe3b4186f6b6457e090600090a35050565b600060208083528351808285015260005b81811015610a12578581018301518582016040015282016109f6565b506000604082860101526040601f19601f8301168501019250505092915050565b80356001600160a01b0381168114610a4a57600080fd5b919050565b60008060408385031215610a6257600080fd5b610a6b83610a33565b946020939093013593505050565b600080600060608486031215610a8e57600080fd5b610a9784610a33565b9250610aa560208501610a33565b9150604084013590509250925092565b600060208284031215610ac757600080fd5b610ad082610a33565b9392505050565b60008060408385031215610aea57600080fd5b610af383610a33565b9150610b0160208401610a33565b90509250929050565b600181811c90821680610b1e57607f821691505b602082108103610b3e57634e487b7160e01b600052602260045260246000fd5b50919050565b8082018082111561030f57634e487b7160e01b600052601160045260246000fdfea2646970667358221220bfd08162c43b1aca2f435814b056da36392eb6889e1e95750e420823aeb55c6064736f6c63430008130033",
  "linkReferences": {},
  "deployedLinkReferences": {}
}