{
  "_format": "hh-sol-artifact-1",
  "contractName": "Counter",
  "sourceName": "contracts/Counter.sol",
  "abi": [
    {
      "inputs": [],
      "stateMutability": "nonpayable",
      "type": "constructor"
    },
    {
      "anonymous": false,
      "inputs": [
        {
          "indexed": false,
          "internalType": "uint256",
          "name": "newCount",
          "type": "uint256"
        },
        {
          "indexed": false,
          "internalType": "address",
          "name": "changedBy",
          "type": "address"
        }
      ],
      "name": "CountChanged",
      "type": "event"
    },
    {
      "inputs": [],
      "name": "decrement",
      "outputs": [],
      "stateMutability": "nonpayable",
      "type": "function"
    },
    {
      "inputs": [],
      "name": "getCount",
      "outputs": [
        {
          "internalType": "uint256",
          "name": "",
          "type": "uint256"
        }
      ],
      "stateMutability": "view",
      "type": "function"
    },
    {
      "inputs": [],
      "name": "increment",
      "outputs": [],
      "stateMutability": "nonpayable",
      "type": "function"
    },
    {
      "inputs": [],
      "name": "owner",
      "outputs": [
        {
          "internalType": "address",
          "name": "",
          "type": "address"
        }
      ],
      "stateMutability": "view",
      "type": "function"
    },
    {
      "inputs": [],
      "name": "reset",
      "outputs": [],
      "stateMutability": "nonpayable",
      "type": "function"
    },
    {
      "inputs": [
        {
          "internalType": "uint256",
          "name": "_count",
          "type": "uint256"
        }
      ],
      "name": "setCount",
      "outputs": [],
      "stateMutability": "nonpayable",
      "type": "function"
    }
  ],
  "bytecode": "0x608060405234801561001057600080fd5b50600180546001600160a01b03191633179055600080556102f7806100366000396000f3fe608060405234801561001057600080fd5b50600436106100625760003560e01c80632baeceb7146100675780638da5cb5b14610071578063a87d942c146100a1578063d09de08a146100b2578063d14e62b8146100ba578063d826f88f146100cd575b600080fd5b61006f6100d5565b005b600154610084906001600160a01b031681565b6040516001600160a01b0390911681526020015b60405180910390f35b600054604051908152602001610098565b61006f610180565b61006f6100c8366004610266565b610192565b61006f6101d2565b600080541161012b5760405162461bcd60e51b815260206004820152601b60248201527f436f756e742063616e6e6f74206265206c657373207468616e2030000000000060448201526064015b60405180910390fd5b600160008082825461013d9190610295565b9091555050600054604080519182523360208301527fb0be3ede0b8207b0d3c8899f9b86dc42673423e1532e9aa4e0c4c03580cb7a8291015b60405180910390a1565b600160008082825461013d91906102ae565b6000819055604080518281523360208201527fb0be3ede0b8207b0d3c8899f9b86dc42673423e1532e9aa4e0c4c03580cb7a82910160405180910390a150565b6001546001600160a01b0316331461022c5760405162461bcd60e51b815260206004820152601e60248201527f4f6e6c79206f776e65722063616e2072657365742074686520636f756e7400006044820152606401610122565b6000808055604080519182523360208301527fb0be3ede0b8207b0d3c8899f9b86dc42673423e1532e9aa4e0c4c03580cb7a829101610176565b60006020828403121561027857600080fd5b5035919050565b634e487b7160e01b600052601160045260246000fd5b818103818111156102a8576102a861027f565b92915050565b808201808211156102a8576102a861027f56fea2646970667358221220985b740c479bef83d88d91d9aa04d4f655735d4425933aa684cba9b0fad26c3b64736f6c63430008130033",
  "linkReferences": {},
  "deployedLinkReferences": {}
}